:100000000C945D000C9485000C9485000C94850084
:100010000C9485000C9485000C9485000C9485004C
:100020000C9485000C9485000C9485000C942A0493
:100030000C9485000C9485000C9485000C9485002C
:100040000C9488030C9485000C94F8030C94D20350
:100050000C9485000C9485000C9485000C9485000C
:100060000C9485000C94850000000008000201003B
:100070000003040700000000000000000000000072
:10008000250028002B0000000000240027002A0083
:10009000040404040404040402020202020203032E
:1000A0000303030301020408102040800102040836
:1000B0001020010204081020010511241FBECFEFFB
:1000C000D8E0DEBFCDBF11E0A0E0B1E0EAE8FDE09E
:1000D00002C005900D92A238B107D9F722E0A2E83C
:1000E000B1E001C01D92A735B207E1F710E0CDE500
:1000F000D0E004C02197FE010E94BD06CC35D10797
:10010000C9F70E9439050C94C3060C940000CF93E4
:10011000DF93DC018C918C3008F06DC0CB01FB01CA
:10012000EC55FF4F249180579F4FFC018491882309
:1001300099F090E0880F991FFC01EA57FF4FC59195
:10014000D491FC01E458FF4F859194918FB7F894B6
:10015000E881E22BE8838FBF8C91282F30E0F901F2
:10016000EE0FFF1FE20FF31FE357FE4F962F9F7313
:100170006081607C692B608311961C9211971296A6
:100180001C9212972CE0622F0E94B106829FB00150
:10019000112430E020E0AB01420F531FFA01EE0FB3
:1001A000FF1FE40FF51FE357FE4F908196FD16C029
:1001B0002F5F3F4F2C30310571F781110FC0109226
:1001C000800082E08093810010928500109284006C
:1001D000B19A80916F00826080936F00EC918E2FB6
:1001E00090E0FC01EE0FFF1FE80FF91FE357FE4FF1
:1001F0008081806480838C91DF91CF91089590E01D
:10020000FC01E859FF4F2491FC01EC55FF4F34915C
:10021000FC01E057FF4FE491EE23C9F0222339F0AF
:10022000233001F1A8F4213019F1223029F1F0E056
:10023000EE0FFF1FE458FF4FA591B4918FB7F894CC
:10024000EC91611126C030953E233C938FBF0895F9
:100250002730A9F02830C9F0243049F78091800078
:100260008F7D03C0809180008F7780938000DFCFE7
:1002700084B58F7784BDDBCF84B58F7DFBCF809134
:10028000B0008F778093B000D2CF8091B0008F7D87
:10029000F9CF3E2BDACF3FB7F8948091850190914A
:1002A0008601A0918701B091880126B5A89B05C061
:1002B0002F3F19F00196A11DB11D3FBFBA2FA92FE5
:1002C000982F8827BC01CD01620F711D811D911DE2
:1002D00042E0660F771F881F991F4A95D1F708954E
:1002E000AF92BF92CF92DF92EF92FF920F931F9344
:1002F000CF93DF936C017B018B01040F151FEB0182
:100300005E01AE18BF08C017D10759F06991D60138
:10031000ED91FC910190F081E02DC6010995892BAA
:1003200079F7C501DF91CF911F910F91FF90EF9069
:10033000DF90CF90BF90AF900895FC01538D448D16
:10034000252F30E0842F90E0821B930B541710F080
:10035000CF96089501970895FC01918D828D98178D
:1003600061F0A28DAE0FBF2FB11D5D968C91928D65
:100370009F5F9F73928F90E008958FEF9FEF089596
:10038000FC01918D828D981731F0828DE80FF11D5F
:10039000858D90E008958FEF9FEF08952FB7F89423
:1003A0008091890190918A01A0918B01B0918C017B
:1003B0002FBF8093B9019093BA01A093BB01B09372
:1003C000BC0181EB91E00E94C00197FF26C02FB7CE
:1003D000F8948091890190918A01A0918B01B0914C
:1003E0008C012FBF4091B9015091BA016091BB01BE
:1003F0007091BC01841B950BA60BB70B4091B50106
:100400005091B6016091B7017091B80184179507BA
:10041000A607B707B0F28FEF9FEF0895FC01918D0B
:10042000228D892F90E0805C9F4F821B91098F73F2
:100430009927089581EB91E00E940E0221E0892B1B
:1004400009F420E0822F089580E090E0892B29F0C4
:100450000E941A0281110C9400000895FC01A48DE1
:10046000A80FB92FB11DA35ABF4F2C91848D90E0D6
:1004700001968F739927848FA689B7892C93A089B9
:10048000B1898C91837080648C93938D848D981343
:1004900006C00288F389E02D80818F7D80830895D6
:1004A000EF92FF920F931F93CF93DF93EC0181E0C4
:1004B000888F9B8D8C8D98131AC0E889F98980816B
:1004C00085FF15C09FB7F894EE89FF896083E8899E
:1004D000F98980818370806480839FBF81E090E090
:1004E000DF91CF911F910F91FF90EF900895F62E1D
:1004F0000B8D10E00F5F1F4F0F731127E02E8C8DB7
:100500008E110CC00FB607FCFACFE889F9898081FB
:1005100085FFF5CFCE010E942E02F1CFEB8DEC0FBF
:10052000FD2FF11DE35AFF4FF0829FB7F8940B8F18
:10053000EA89FB8980818062CFCFCF93DF93EC0182
:10054000888D8823B9F0AA89BB89E889F9898C91BB
:1005500085FD03C0808186FD0DC00FB607FCF7CF77
:100560008C9185FFF2CF808185FFEDCFCE010E9477
:100570002E02E9CFDF91CF9108958F929F92AF9293
:10058000BF92FF920F931F93CF93DF93FC01F080F4
:100590008BE08F1508F44AC0828108E512E0081B41
:1005A000110987FD1395000F111F000F111F818185
:1005B000C8E8D0E0C81BD10987FDD395CC0FDD1F5B
:1005C000CC0FDD1F4E010D2E000CAA08BB089801B0
:1005D000012E000C440B550B281939094A095B09F7
:1005E000DB010E94780624EB30E040E050E00E94FE
:1005F0004E06820E931EA41EB51E8C169D062CF070
:10060000E801801691060CF4E4012297CC0FDD1F5F
:100610002FB7F8948F2D90E0FC01EE0FFF1FE80F2D
:10062000F91FE357FE4FD283C1832FBFDF91CF91D4
:100630001F910F91FF90BF90AF909F908F90089562
:10064000CF93DF93FC0101900020E9F73197AF01D0
:10065000481B590BBC0181EB91E00E947001EC0139
:1006600042E050E062E171E081EB91E00E947001B4
:100670008C0F9D1FDF91CF9108958F929F92AF9223
:10068000BF92CF92DF92EF92FF92CF93DF93EC0174
:1006900070E060E00E94BD0285E191E00E942003CD
:1006A0000E944B014B015C0180EDC82E87E0D82EE3
:1006B000E12CF12C0E944B01681979098A099B09E8
:1006C000683E734081059105A8F321E0C21AD10864
:1006D000E108F10888EE880E83E0981EA11CB11C89
:1006E000C114D104E104F10429F76AE570E0CE01F8
:1006F0000E94BD0285E291E0DF91CF91FF90EF90E3
:10070000DF90CF90BF90AF909F908F900C9420037C
:100710001F920F920FB60F9211242F933F938F9336
:100720009F93AF93BF938091890190918A01A0918B
:100730008B01B0918C013091840123E0230F2D3780
:1007400058F50196A11DB11D209384018093890164
:1007500090938A01A0938B01B0938C0180918501C5
:1007600090918601A0918701B09188010196A11D09
:10077000B11D8093850190938601A0938701B0936A
:100780008801BF91AF919F918F913F912F910F90D1
:100790000FBE0F901F90189526E8230F0296A11DFB
:1007A000B11DD2CF1F920F920FB60F9211242F932B
:1007B0003F934F935F936F937F938F939F93AF93E9
:1007C000BF93EF93FF9381EB91E00E942E02FF9184
:1007D000EF91BF91AF919F918F917F916F915F91B9
:1007E0004F913F912F910F900FBE0F901F90189532
:1007F0001F920F920FB60F9211242F938F939F93F6
:10080000EF93FF93E091C101F091C2018081E091EB
:10081000C701F091C80182FD1BC090818091CA017F
:100820008F5F8F732091CB01821741F0E091CA0155
:10083000F0E0EF54FE4F958F8093CA01FF91EF9146
:100840009F918F912F910F900FBE0F901F90189531
:100850008081F4CF1F920F920FB60F9211242F9325
:100860003F934F935F936F937F938F939F93AF9338
:10087000BF93CF93DF93EF93FF9380918201C09159
:100880008301D0E087FF24C010928500109284007D
:10089000809182018F5F8093820180918201082E76
:1008A000000C990B8C179D0724F4809182018C30E9
:1008B000C4F18091840090918500049680349C4915
:1008C00008F47AC08091840090918500049676C0E7
:1008D00080918201082E000C990B8C179D07C4F69D
:1008E000E09182018E2FEE0F990BFC01EE0FFF1F9E
:1008F000E80FF91FE357FE4F808186FFC9CFE091D3
:1009000082018E2FEE0F990BFC01EE0FFF1FE80FF7
:10091000F91FE357FE4F808160E08F730E94FF0054
:10092000B7CF2091840030918500E09182018E2F15
:10093000EE0F990BFC01EE0FFF1FE80FF91FE357B5
:10094000FE4F81819281820F931F90938900809343
:100950008800E09182018E2FEE0F990BFC01EE0FC3
:10096000FF1FE80FF91FE357FE4F808186FF11C07C
:10097000E09182018E2FEE0F990BFC01EE0FFF1F0D
:10098000E80FF91FE357FE4F808161E08F730E94EB
:10099000FF00FF91EF91DF91CF91BF91AF919F91B8
:1009A0008F917F916F915F914F913F912F910F9018
:1009B0000FBE0F901F90189580E49CE990938900DA
:1009C000809388008FEF80938201E3CFFC019091A8
:1009D00083019C3098F481E0890F80938301908398
:1009E000892F90E0FC01EE0FFF1FE80FF91FE3577E
:1009F000FE4F88EB9BE09283818308958FEF808385
:100A00000895E1EBF1E01382128288EE93E0A0E01A
:100A1000B0E084839583A683B78384E091E09183DB
:100A2000808385EC90E09587848784EC90E09787BD
:100A3000868780EC90E0918B808B81EC90E0938BAB
:100A4000828B82EC90E0958B848B86EC90E0978B88
:100A5000868B118E128E138E148E84E592E00E9486
:100A6000E60481E592E00E94E6048EE492E00C94B4
:100A7000E604789484B5826084BD84B5816084BDC9
:100A800085B5826085BD85B5816085BD80916E002C
:100A9000816080936E00109281008091810082605D
:100AA000809381008091810081608093810080919A
:100AB00080008160809380008091B1008460809389
:100AC000B1008091B00081608093B00080917A0085
:100AD000846080937A0080917A00826080937A00AB
:100AE00080917A00816080937A0080917A0080689A
:100AF00080937A001092C10068E070E084E592E093
:100B00000E94870069E070E081E592E00E94870022
:100B10006AE070E08EE492E00E948700E091C101FB
:100B2000F091C20182E08083E091BD01F091BE01AD
:100B30001082E091BF01F091C0018FEC8083109290
:100B4000C901E091C501F091C60186E08083E09182
:100B5000C301F091C401808180618083E091C30171
:100B6000F091C401808188608083E091C301F0919D
:100B7000C401808180688083E091C301F091C40149
:100B800080818F7D808385E391E00E942003C0E017
:100B9000D0E081EB91E00E940E02181619060CF0CD
:100BA00051C00E94CE01FC0197FD5EC08D329105BF
:100BB00021F0C0970A9708F050C0C12CD12C7601C3
:100BC00010E0E130F105D9F0ED32F10509F44AC049
:100BD000CF01C0970A9798F4AAE0B0E0A701960168
:100BE0000E946D066F01FF0FEE08FF08C60ED71EAC
:100BF000E81EF91E80E3C81AD108E108F10881EB6C
:100C000091E00E94AC010E94CE01FC01C0970A97BE
:100C1000C0F2E130F105A9F2112341F0F094E09423
:100C2000D094C094C11CD11CE11CF11C81E0C816F9
:100C3000D104F1F489E491E00E94200384E592E07C
:100C40000E943D03209709F4A4CF0E941A02882332
:100C500009F49FCF0E9400009CCF81EB91E00E949D
:100C6000AC019FCF11E0CBCFC12CD12C7601DECFD0
:100C700082E0C816D10439F48CE591E00E9420038B
:100C800081E592E0DDCF83E0C816D104D9F68FE686
:100C900091E00E9420038EE492E0D2CF052E97FBD4
:100CA0001EF400940E94650657FD07D00E9480063E
:100CB00007FC03D04EF40C94650650954095309592
:100CC00021953F4F4F4F5F4F0895909580957095B8
:100CD00061957F4F8F4F9F4F08950E94A206A59F59
:100CE000900DB49F900DA49F800D911D1124089527
:100CF000B7FF0C946D060E946D06821B930B08953E
:100D0000A1E21A2EAA1BBB1BFD010DC0AA1FBB1F0F
:100D1000EE1FFF1FA217B307E407F50720F0A21B81
:100D2000B30BE40BF50B661F771F881F991F1A94EE
:100D300069F760957095809590959B01AC01BD0118
:100D4000CF010895A29FB001B39FC001A39F700D72
:100D5000811D1124911DB29F700D811D1124911DC3
:100D60000895991B79E004C0991F961708F0961B07
:100D7000881F7A95C9F780950895EE0FFF1F05909B
:0A0D8000F491E02D0994F894FFCFE0
:100D8A0000000000500270019D019D020E02AC019C
:100D9A00C0010D0A0042617272696572204F706566
:100DAA006E65642E004261727269657220436C6FCF
:100DBA007365642E00537461727465642053696D9F
:100DCA00756C6174696F6E0A004F70656E696E6743
:100DDA00204261727269657220312E004F70656E11
:100DEA00696E67204261727269657220322E004F05
:100DFA0070656E696E67204261727269657220332E
:020E0A002E00B8
:00000001FF
